{
  "_format": "hh-sol-artifact-1",
  "contractName": "Counter",
  "sourceName": "contracts/Counter.sol",
  "abi": [
    {
      "inputs": [
        {
          "internalType": "string",
          "name": "_ownerName",
          "type": "string"
        }
      ],
      "stateMutability": "nonpayable",
      "type": "constructor"
    },
    {
      "inputs": [],
      "name": "count",
      "outputs": [
        {
          "internalType": "uint256",
          "name": "",
          "type": "uint256"
        }
      ],
      "stateMutability": "view",
      "type": "function"
    },
    {
      "inputs": [],
      "name": "decrement",
      "outputs": [],
      "stateMutability": "nonpayable",
      "type": "function"
    },
    {
      "inputs": [],
      "name": "getCount",
      "outputs": [
        {
          "internalType": "uint256",
          "name": "",
          "type": "uint256"
        }
      ],
      "stateMutability": "view",
      "type": "function"
    },
    {
      "inputs": [],
      "name": "getOwnerName",
      "outputs": [
        {
          "internalType": "string",
          "name": "",
          "type": "string"
        }
      ],
      "stateMutability": "view",
      "type": "function"
    },
    {
      "inputs": [],
      "name": "increment",
      "outputs": [],
      "stateMutability": "nonpayable",
      "type": "function"
    },
    {
      "inputs": [],
      "name": "ownerName",
      "outputs": [
        {
          "internalType": "string",
          "name": "",
          "type": "string"
        }
      ],
      "stateMutability": "view",
      "type": "function"
    },
    {
      "inputs": [],
      "name": "reset",
      "outputs": [],
      "stateMutability": "nonpayable",
      "type": "function"
    }
  ],
  "bytecode": "0x60806040523480156200001157600080fd5b5060405162000841380380620008418339818101604052810190620000379190620002ab565b600080819055508060019080519060200190620000569291906200005e565b505062000361565b8280546200006c906200032b565b90600052602060002090601f016020900481019282620000905760008555620000dc565b82601f10620000ab57805160ff1916838001178555620000dc565b82800160010185558215620000dc579182015b82811115620000db578251825591602001919060010190620000be565b5b509050620000eb9190620000ef565b5090565b5b808211156200010a576000816000905550600101620000f0565b5090565b6000604051905090565b600080fd5b600080fd5b600080fd5b600080fd5b6000601f19601f8301169050919050565b7f4e487b7100000000000000000000000000000000000000000000000000000000600052604160045260246000fd5b62000177826200012c565b810181811067ffffffffffffffff821117156200019957620001986200013d565b5b80604052505050565b6000620001ae6200010e565b9050620001bc82826200016c565b919050565b600067ffffffffffffffff821115620001df57620001de6200013d565b5b620001ea826200012c565b9050602081019050919050565b60005b8381101562000217578082015181840152602081019050620001fa565b8381111562000227576000848401525b50505050565b6000620002446200023e84620001c1565b620001a2565b90508281526020810184848401111562000263576200026262000127565b5b62000270848285620001f7565b509392505050565b600082601f83011262000290576200028f62000122565b5b8151620002a28482602086016200022d565b91505092915050565b600060208284031215620002c457620002c362000118565b5b600082015167ffffffffffffffff811115620002e557620002e46200011d565b5b620002f38482850162000278565b91505092915050565b7f4e487b7100000000000000000000000000000000000000000000000000000000600052602260045260246000fd5b600060028204905060018216806200034457607f821691505b602082108114156200035b576200035a620002fc565b5b50919050565b6104d080620003716000396000f3fe608060405234801561001057600080fd5b506004361061007d5760003560e01c806365ac23201161005b57806365ac2320146100c8578063a87d942c146100e6578063d09de08a14610104578063d826f88f1461010e5761007d565b806306661abd14610082578063145ef6e9146100a05780632baeceb7146100be575b600080fd5b61008a610118565b60405161009791906102aa565b60405180910390f35b6100a861011e565b6040516100b5919061035e565b60405180910390f35b6100c66101b0565b005b6100d06101d6565b6040516100dd919061035e565b60405180910390f35b6100ee610264565b6040516100fb91906102aa565b60405180910390f35b61010c61026d565b005b610116610288565b005b60005481565b60606001805461012d906103af565b80601f0160208091040260200160405190810160405280929190818152602001828054610159906103af565b80156101a65780601f1061017b576101008083540402835291602001916101a6565b820191906000526020600020905b81548152906001019060200180831161018957829003601f168201915b5050505050905090565b6000805411156101d45760016000808282546101cc9190610410565b925050819055505b565b600180546101e3906103af565b80601f016020809104026020016040519081016040528092919081815260200182805461020f906103af565b801561025c5780601f106102315761010080835404028352916020019161025c565b820191906000526020600020905b81548152906001019060200180831161023f57829003601f168201915b505050505081565b60008054905090565b600160008082825461027f9190610444565b92505081905550565b60008081905550565b6000819050919050565b6102a481610291565b82525050565b60006020820190506102bf600083018461029b565b92915050565b600081519050919050565b600082825260208201905092915050565b60005b838110156102ff5780820151818401526020810190506102e4565b8381111561030e576000848401525b50505050565b6000601f19601f8301169050919050565b6000610330826102c5565b61033a81856102d0565b935061034a8185602086016102e1565b61035381610314565b840191505092915050565b600060208201905081810360008301526103788184610325565b905092915050565b7f4e487b7100000000000000000000000000000000000000000000000000000000600052602260045260246000fd5b600060028204905060018216806103c757607f821691505b602082108114156103db576103da610380565b5b50919050565b7f4e487b7100000000000000000000000000000000000000000000000000000000600052601160045260246000fd5b600061041b82610291565b915061042683610291565b925082821015610439576104386103e1565b5b828203905092915050565b600061044f82610291565b915061045a83610291565b9250827fffffffffffffffffffffffffffffffffffffffffffffffffffffffffffffffff0382111561048f5761048e6103e1565b5b82820190509291505056fea2646970667358221220cec0537d9375ca35b4b5f001504e5ffab3b98fffd220500f1bafdd05d62b00ee64736f6c63430008090033",
  "linkReferences": {},
  "deployedLinkReferences": {}
}