{
  "_format": "hh-sol-artifact-1",
  "contractName": "Counter",
  "sourceName": "contracts/Counter.sol",
  "abi": [
    {
      "inputs": [],
      "stateMutability": "nonpayable",
      "type": "constructor"
    },
    {
      "inputs": [],
      "name": "count",
      "outputs": [
        {
          "internalType": "uint256",
          "name": "",
          "type": "uint256"
        }
      ],
      "stateMutability": "view",
      "type": "function"
    },
    {
      "inputs": [],
      "name": "decrement",
      "outputs": [],
      "stateMutability": "nonpayable",
      "type": "function"
    },
    {
      "inputs": [],
      "name": "getCount",
      "outputs": [
        {
          "internalType": "uint256",
          "name": "",
          "type": "uint256"
        }
      ],
      "stateMutability": "view",
      "type": "function"
    },
    {
      "inputs": [],
      "name": "increment",
      "outputs": [],
      "stateMutability": "nonpayable",
      "type": "function"
    }
  ],
  "bytecode": "0x608060405234801561001057600080fd5b5060008081905550610214806100276000396000f3fe608060405234801561001057600080fd5b506004361061004c5760003560e01c806306661abd146100515780632baeceb71461006f578063a87d942c14610079578063d09de08a14610097575b600080fd5b6100596100a1565b604051610066919061010a565b60405180910390f35b6100776100a7565b005b6100816100cd565b60405161008e919061010a565b60405180910390f35b61009f6100d6565b005b60005481565b6000805411156100cb5760016000808282546100c39190610154565b925050819055505b565b60008054905090565b60016000808282546100e89190610188565b92505081905550565b6000819050919050565b610104816100f1565b82525050565b600060208201905061011f60008301846100fb565b92915050565b7f4e487b7100000000000000000000000000000000000000000000000000000000600052601160045260246000fd5b600061015f826100f1565b915061016a836100f1565b92508282101561017d5761017c610125565b5b828203905092915050565b6000610193826100f1565b915061019e836100f1565b9250827fffffffffffffffffffffffffffffffffffffffffffffffffffffffffffffffff038211156101d3576101d2610125565b5b82820190509291505056fea26469706673582212200be24b965ec6f243e7a4e90c324b37d8e2538f6a02a4abaae3e621f729d6ab0764736f6c63430008090033",
  "linkReferences": {},
  "deployedLinkReferences": {}
}